:020000040800F2
:1000000098070020E501000855170008DD140008D6
:10001000511700085B1200086F2000080000000064
:10002000000000000000000000000000D51C0008D7
:100030005F12000800000000111A0008E91D000806
:10004000FF010008FF010008FF010008111C000863
:10005000FF010008FF010008FF010008FF01000880
:10006000FF010008FF010008FF010008FF01000870
:10007000FF010008FF010008FF010008FF01000860
:10008000FF010008FF010008FF010008FF01000850
:10009000FF010008FF010008FF010008B912000875
:1000A000FF010008FF010008FF010008FF01000830
:1000B000FF010008FF010008FF010008FF01000820
:1000C000FF010008FF010008FF010008FF01000810
:1000D000FF0100084D1E0008FF010008FF01000895
:1000E000FF010008991B0008FF010008FF0100083C
:1000F000FF010008FF010008FF010008FF010008E0
:10010000FF010008FF010008FF010008FF010008CF
:10011000FF010008FF010008FF010008FF010008BF
:10012000FF010008FF010008FF010008FF010008AF
:1001300000F002F800F047F80AA090E8000C8244B2
:100140008344AAF10107DA4501D100F03CF8AFF28F
:10015000090EBAE80F0013F0010F18BFFB1A43F0A5
:1001600001031847E432000004330000103A24BFB2
:1001700078C878C1FAD8520724BF30C830C144BF0C
:1001800004680C607047000000230024002500264E
:10019000103A28BF78C1FBD8520728BF30C148BFEA
:1001A0000B607047662902F00B86002070471FB570
:1001B00000F022FB04000020002102F0EBF9E060D7
:1001C0001FBD10B510BD00F017FC1146FFF7EFFF83
:1001D00002F0C2F800F035FC03B4FFF7F2FF03BCF5
:1001E00001F062FF0948804709480047FEE7FEE743
:1001F000FEE7FEE7FEE7FEE7FEE7FEE7FEE7FEE7D7
:1002000004480549054A064B70470000ED1D0008EB
:100210003101000898010020980700209803002071
:1002200098030020704700000FB4044910B503AADA
:10023000029800F0CFFA10BC5DF814FB64000020B7
:100240000FB41CB5074B06AA7B446946009005987D
:1002500000F0A7FA0020694600F0B6FA1CBC5DF871
:1002600014FB00007D0500002DE9F0474FF0000A67
:1002700089460446C0F820A02046E1688847002847
:1002800076D0252806D0D4E901219047206A401C69
:100290002062F1E7E168204600258847C4F81CA0E9
:1002A00006460027C4F818A02A2E09D0304601F0CF
:1002B000F4FE38B304EB8708303EC8F8186019E044
:1002C00059F8041B204604EB87029161E1688847D6
:1002D000012F064618D1E069002820DA25F0200514
:1002E0001DE0D8F8180000EB800006EB4000303825
:1002F000C8F818002046E1688847064601F0CDFEA0
:100300000028EED1012F0AD02E2E08D12046E16818
:1003100088477F1C0646022F45F02005C4DBA069F4
:10032000002803DA404245F00105A061E80701D04A
:1003300025F01005B6B1A6F14100192802D82036E3
:1003400045F400654A463146204625604D46FFF794
:1003500029FF58B1012806D0ED1D25F0070000F156
:10036000080989E704E005F1040985E730468AE7D2
:10037000206ABDE8F0877047704770477047704744
:100380002DE9FF4F0C461E464FF0FF378BB0D2E9E8
:100390000001DDF860800A908A46C1F30A5505B96C
:1003A0003D46002108464FF00000BAF1000F00F46E
:1003B000400005DA00EB80004FF4400101EA5000F4
:1003C0004FEA9059B9F1010F00DDB9460A9850EA99
:1003D0004A000ED044F61050A5F2FF3545432F14C5
:1003E000B8F1000F1ED07542291E1EDDC9F10002B2
:1003F0001CE0B8F1010F4FF0000001D0302103E004
:10040000F24305E02154401CB042FBDB30460022A1
:10041000002121540B99C1F80880C1E900200FB0D8
:10042000BDE8F08FBD1B6D1CDEE74A4600DA69426D
:1004300006A800F06BFA06AB93E8070003AB83E86D
:10044000070050460A9900F045FB8DE80700A0F52B
:1004500000501F3800900398002D09DD42F21F0163
:100460004A46084403A90390684600F0A4FD08E04A
:10047000A0F500504A461F3803A90390684600F0D3
:10048000AEFD8DE807000004000C03D04FF0FF30F4
:10049000410800E01046B8F1000F03D0002200929E
:1004A00015461EE0751E05D400F0AAF930326255DB
:1004B0006D1EF9D5B3460122084302D000227F1CED
:1004C00004E02078302801D100227F1E002A0997FD
:1004D00086D01DE0112D07DA00F092F93032625516
:1004E0006D1C50EA0102F5D1084302D00098C8B152
:1004F0000EE00021681E05E0235C625C6354225418
:10050000401E491C8142F7DBAB46A81B401E0990E8
:10051000002004F80B000B98099AC0F80880C0E985
:10052000002B7CE711264FF0000859E72DE9F04F2A
:1005300088460446D21D22F0070191B0D1E900019E
:10054000CDE90A0101F095FD02460B98C00F01D0DC
:100550002D2007E02068810701D52B2002E0202113
:1005600001EAC000032A099001D0072A05DB0346EF
:100570004146204600F08AF90BE12078800601D53B
:10058000E06900E00620B8F1650F814606D0B8F1B9
:10059000660F18D0B8F1670F70D131E00020B9F1C3
:1005A000110F009001DB112301E009F101030AAAF8
:1005B00001A90CA8FFF7E4FEDDE90C70002609F1A3
:1005C0000105834647E001204B4600904FF000476D
:1005D0000AAA01A90CA8FFF7D3FEDDE90DB00C991A
:1005E0005D46002610B909F101000D18B9EB0500B0
:1005F00003D4C0F1FF3609F10105A5EB09002BE09A
:10060000B9F1010F01DA4FF001090020B9F1110F22
:100610000090484601DD112300E003460AAA01A923
:100620000CA8FFF7ADFEDDE90C704D4600268346B1
:10063000207800070AD4AB4500DA5D4601A8012DF9
:1006400004DD411911F8011C302907D04F4502DAA9
:1006500017F1040F04DA012082460FE06D1EEEE769
:10066000002F02DCED1B3E4403E0781CA84200DDB5
:100670007D1CB81B00F1010A4FF0004720780007ED
:1006800003D4AA4501DB4FF0FF3A0021B7F1004F38
:100690000DF143088DF8431024D002202B23002FA6
:1006A00001DA7F422D230A21021EA0F1010000DCA5
:1006B0005FB197FBF1FC97FBF1F201FB1C7C174645
:1006C0000CF1300C08F801CDEEE7A8F10100037041
:1006D0002188090501D5452100E06521A0F1010827
:1006E00000F8011C09980FA9A1EB0807FF1D00B134
:1006F0000120411901EBEA70A1693844081A401E33
:10070000A0612078C00602D42046AFF3008009988B
:1007100028B1D4E901219047206A401C206220784A
:10072000C00622D52046AFF300801EE0002E04DB79
:10073000B34502DD01A8805D00E03020D4E901214D
:100740009047206A401C2062761CAAF101005FEAF3
:10075000000A0AD100F050F8C0680168405CD4E992
:1007600001219047206A401C2062281EA5F1010546
:10077000DCDC07E0D4E9012118F8010B9047206A7E
:10078000401C2062381EA7F10107F3DC2046AFF3BE
:100790000080032011B043E601694A1C0261087819
:1007A000704700B58FB0CDE90131002105910549B1
:1007B0007944CDE9031011466846FFF755FD0FB0A7
:1007C00000BD0000E5FFFFFF0A6802F8010B0A60A8
:1007D00070470000074B70B50D467B44FFF7E1FF03
:1007E0000446284600F000F910B14FF0FF3070BD0C
:1007F000204670BD5F1B0000004870475801002074
:1008000030B5B0F10A024FEA900E71F100034EEAE2
:10081000817EB0EB0E0061EB91014FEA101E4EEAB3
:10082000017E10EB0E0041EB11114FEA102E4EEA43
:10083000016E10EB0E0041EB11214FEA104E4EEA13
:10084000014E10EB0E0041EB1141401841F1000147
:100850004FEAD00040EA41704FEAD10110EB800529
:100860004FEA810444EA907444EB01046D1944EBAF
:100870000404521BA3414FF0000348BF0A3200D5C5
:1008800030BD401C41F1000130BD00002DE9F041B8
:100890001F46044603260168072A01F4006004DBB2
:1008A00008B116A505E016A503E008B115A500E0FE
:1008B00015A521F010002060A069C01EA0610FB135
:1008C000401EA0612046AFF300804FB1D4E9012162
:1008D00038469047206A401C2062C01C206206E017
:1008E000206AFAE7D4E9012115F8010B9047761E3A
:1008F000F8D22046AFF30080BDE8F0814E414E00B3
:100900006E616E00494E4600696E66002DE9F04743
:10091000814616468AB0334878440DC88DE80D00EC
:1009200030487844801C03AC0DC884E80D0041F6C3
:100930009B300844372190FBF1F290FBF1F5A5F1D3
:10094000800501FB12041B3C02D56442012000E03B
:100950000020DFF890A080460027FA44AAF1BE0AE2
:100960000DE0E00709D03246684607EB47010AEB85
:10097000810100F034FB8DE8070064107F1C002C1F
:10098000EFD1184F7F44AC3F18E0E80714D007EBD5
:1009900004100DF1180A90E80E008AE80E00C068F5
:1009A000F04201D198190890324606A903A800F038
:1009B00016FB03AB83E807006D10641C002DE4D127
:1009C00032466946B8F1000F03A802D000F0F3FAEE
:1009D00001E000F004FBC9E90001C9F808200AB0F1
:1009E000BDE8F087142B0000007B00F0800070470A
:1009F00000487047380100207546FFF7F9FFAE4602
:100A000005006946534620F00700854618B020B51A
:100A1000FFF7F6FBBDE820404FF000064FF000075F
:100A20004FF000084FF0000B21F00701AC46ACE896
:100A3000C009ACE8C009ACE8C009ACE8C0098D4603
:100A4000704710B50446AFF300802046BDE8104063
:100A5000FFF7C2BB4FF0013C50F8042B51F8043BA8
:100A60009A4221D1A2EB0C03934313EACC1317D182
:100A700050F8042B51F8043B9A4215D1A2EB0C0319
:100A8000934313EACC130BD150F8042B51F8043BD9
:100A90009A4209D1A2EB0C03934313EACC13DBD0A7
:100AA0004FF00000704700BFD01A01BAB1FA81F1CF
:100AB00001F0180122FA01F0CB40C1F12001DBB2B4
:100AC000C0B2C01A2CFA01F3D11A914311EAC31132
:100AD000E6D170475FEA400C08BF91F0000F4FEA83
:100AE0008C234FEAC12243EA51514FEA1C5018BFF0
:100AF00000F5F0404FEA300018BF41F000415FEAD6
:100B00006C5C00F02980BCF1FF3F08BF40F08040E2
:100B10007047130C06BF12044FF0100C4FF0000C7E
:100B2000130E04BF12020CF1080C130F04BF1201C4
:100B30000CF1040C930F04BF92000CF1020CD30FC4
:100B400004BF52000CF1010C11464FF00002A0F15D
:100B50001F00A0EB0C00704711F0004F08BF70475A
:100B600031F000413FF4D5AF0B0C06BF09044FF044
:100B7000100C4FF0000C0B0E04BF09020CF1080C16
:100B80000B0F04BF09010CF1040C8B0F04BF89008B
:100B90000CF1020CCB0F04BF49000CF1010CCCF19D
:100BA0002003A0EB0C0022FA03F302FA0CF241EA54
:100BB000030100F10100704720F07F4C80EA030040
:100BC00023F07F47ACEB070303F57C5300F00040B4
:100BD00003F1FF032DE980494FEA154B09B44FEAB1
:100BE000144325EA0B4E24EA03480FF2042606EBD1
:100BF000132749083E785FEA320203FB0667C7F510
:100C0000000707FB06F64FEA54374FEAD64606F1CF
:100C1000020607FB066CCCF1005C4FEA1C472CEA8D
:100C2000074C07FB06F40CFB06F504EB15464FEAF0
:100C3000961634BF00204FF000404FEAD13706FB34
:100C400007FC4FEA1C4C0CFB0BF7D21B03FB0CF709
:100C500061EB07010CFB0EF7B0EB074072EB17429C
:100C60000CFB08F734BFA2EB0742B2EB074261EB83
:100C700017414FEA0C444FEA910706FB07FC4FEA85
:100C80001C4C0CFB0BF7B0EBC74072EB573203FB6D
:100C90000CF734BFA2EBC742B2EBC74261EB57314E
:100CA0000CFB0EF7B0EBC70072EB57720CFB08F7AA
:100CB00034BFA2EBC702B2EBC70261EB5771039FCF
:100CC0004FEA816141EA921104EBCC044FEAD1373B
:100CD0004FEA826206FB07FC42EA90124FEA80600C
:100CE0004FEA1C4C0CFB0BF7D21B03FB0CF761EB20
:100CF00007010CFB0EF7B0EB074072EB17420CFB41
:100D000008F734BFA2EB0742B2EB074261EB174191
:100D10004FEA8C554FEA910704EB9C2406FB07FC35
:100D20004FEA1C4C0CFB0BF7B0EBC74072EB573291
:100D300003FB0CF734BFA2EBC742B2EBC74261EB37
:100D400057310CFB0EF7B0EBC70072EB57720CFB80
:100D500008F734BFA2EBC702B2EBC70261EB5771D1
:100D600015EB4C254FEA816141EA92114FEA82620C
:100D70004FEAD13742EA901206FB07FC44F1000427
:100D80004FEA80604FEA1C4C0CFB0BF7D21B03FBB5
:100D90000CF761EB07010CFB0EF7B0EB074072EBB1
:100DA00017420CFB08F734BFA2EB0742B2EB074235
:100DB00061EB174115EB1C154FEA813141EA924175
:100DC0004FEA823242EA90424FEA80304FEA0C7694
:100DD00044F1000448EA03434EEA0B484FF0000E8A
:100DE000B2EB080C71EB030724BF624639464EEBA9
:100DF0000E0E4FF0000B0018524149414BEB0B0B0C
:100E0000B2EB080C71EB03077BF1000B24BF6246C9
:100E100039464EEB0E0E4FF0000B0018524149417F
:100E20004BEB0B0BB2EB080C71EB03077BF1000BE8
:100E300024BF624639464EEB0E0E51EA020718BF38
:100E400046F0010616EB0E7655F1000254F1000152
:100E500003D5BDE88901BDE80088BDE88901BDE88A
:100E60000048B619524141EB0101A3F1010370475B
:100E700080807F7E7D7C7B7A7978777676757473D7
:100E8000727171706F6E6E6D6C6C6B6A6A69686896
:100E9000676666656464636362616160605F5F5E2C
:100EA0005E5D5D5C5C5B5B5A5A59595858575756A2
:100EB0005655555554545353525252515150505007
:100EC0004F4F4F4E4E4D4D4D4C4C4C4B4B4B4A4A59
:100ED0004A4949494848484747474746464645459D
:100EE00045444444444343434342424242414141D6
:100EF000002B26D4770021D01CB54FEA370703B466
:100F00004FF010004FF010014FF000000FBCBDE893
:100F100010400BF1010BBBF1010F08BF5FEA17078F
:100F200022BF12F1010211F101014FF0004143F122
:100F3000000300F0004043EA00007047F9D357086F
:100F4000DAE746EA064613F1400F4FEA16461FDD80
:100F500013F1200FDFBF16430A46002120335B4206
:100F6000C8D0C3F1200746EA064602FA07F74FEA5F
:100F7000164646EA0706C3F1200722FA03F201FAF1
:100F800007F721FA03F14FF0000342EA0702B1E745
:100F900046EA020646EA06464FEA164646EA0106D1
:100FA000BCBF46EA0646360C4FF000034FF0000285
:100FB0004FF000019EE72DE9C048934630B491E818
:100FC000380007C831EA400C48BF34EA430C03D567
:100FD000FFF7F2FDFFF78CFFF0BCBDE800882DE9BC
:100FE000C048934630B491E8380007C810F0804FED
:100FF00008BF13F0804F03D100F005F8FFF778FF2A
:10100000F0BCBDE8008820F07F4780EA030023F0B1
:101010007F4C07EB0C03A3F57C5300F00040A3F1D9
:10102000FE0392F0000F00F0B38095F0000F00F087
:1010300077802DE901494FEA11404FEA144621EA31
:10104000004800FB06FC24EA064708FB06F607FBFF
:1010500008F800FB07F718EB06484CEB164C4FEA74
:10106000124B18EB07484FEA15464CEB174022EAA3
:101070000B4E0BFB06FC25EA06470EFB06F607FBAC
:101080000EFE0BFB07F71EEB064E4CEB164C4FF01B
:1010900000061EEB074E4CEB174B18EB0B0840F10C
:1010A000000018EB0E0B58EB000840F100008F1AFF
:1010B0004FF000013CBFC943661B14BFB5EB040CE5
:1010C00000213CBFC943F61B4FEA17444EEA8E0E7F
:1010D00027EA04454FEA1C4704FB07622CEA074C49
:1010E00005FB07F70CFB05F604FB0CFC16EB0746AB
:1010F00042EB174216EB0C4642EB1C421BEB06067A
:1011000058EB0202414146EA9E0601D5BDE801893D
:10111000B619524141EB0101A3F10103BDE8018978
:101120004FEA14454FEA114724EA054621EA074CE5
:1011300005FB07F406FB07F70CFB06F105FB0CFCAF
:1011400011EB074144EB17444FEA124711EB0C41F6
:1011500044EB1C4422EA074C05FB07F206FB07F7A9
:101160000CFB06F605FB0CFC16EB074642EB1742A0
:1011700016EB0C4642EB1C456A1854F1000148BFBF
:101180007047B619524141EB0101A3F101037047C9
:1011900095F0000F37D04FEA11424FEA144721EA89
:1011A000024624EA074C02FB07F106FB07F70CFB9B
:1011B00006F402FB0CFC14EB074441EB17414FEA29
:1011C000154714EB0C4441EB1C4125EA074C02FB8C
:1011D00007F506FB07F70CFB06F602FB0CFC16EB0B
:1011E000074645EB174516EB0C4645EB1C4212191A
:1011F00051F1000148BF7047B619524141EB01015E
:10120000A3F1010370474FEA14454FEA114724EA5E
:10121000054621EA074C05FB07F106FB07F70CFB27
:1012200006F24FF0000605FB0CFC12EB074241EB07
:10123000174112EB0C4251EB1C4148BF704792180A
:1012400041EB0101A3F10103704710B5012000F04B
:1012500001FC002000F0FEFB10BD00BFFEE7704760
:101260000EB50121084600F0E5FB00F021FF4FF428
:10127000A06000F0A9FA0721012000F07BF880208F
:1012800001900C208DF8090000208DF80800012045
:101290008DF80A0001A800F023F817208DF800004F
:1012A00001208DF801008DF802008DF803006846DA
:1012B00000F052FA0EBD000010B58021044800F085
:1012C00004F908B901F096F8802000F003F810BD89
:1012D000000C0140014908607047000014040140FF
:1012E000002123498279002A3AD00A46126803680D
:1012F0009A430B461A600A1D126803689A430B1D35
:101300001A60027911440A6803681A430A60184A8D
:101310000832126803689A43154B08331A601A1D85
:10132000126803689A43124B0C331A604279102AF0
:101330000ED11A1F126803681A430D4B08331A6046
:101340001A1D126803681A43094B0C331A600DE02A
:101350000749427911440A6803681A430A6005E0A4
:10136000027911440A6803689A430A6070470000D2
:101370000004014030B500228B071C0F0F2303FA35
:1013800004F20B4B8C1053F824309343084C8D100F
:1013900044F8253023468C1053F824308C07240F52
:1013A00000FA04F42343024C8D1044F8253030BD7C
:1013B000080001402DE9F0410246002500260020EA
:1013C00000230024002791F803C00CF00F0591F8CA
:1013D00003C00CF0100CBCF1000F03D091F802C058
:1013E0004CEA050591F800C0BCF1000F31D014683B
:1013F00000202BE04FF0010C0CFA00F3B1F800C014
:101400000CEA03069E4220D183004FF00F0C0CFA29
:1014100003F7BC4305FA03FC4CEA040491F803C04B
:10142000BCF1280F06D14FF0010C0CFA00FCC2F8F9
:1014300014C00AE091F803C0BCF1480F05D14FF089
:10144000010C0CFA00FCC2F810C0401C0828D1D3D3
:101450001460B1F800C0BCF1FF0F34DD5468002007
:101460002EE000F1080C4FF0010808FA0CF3B1F877
:1014700000C00CEA03069E4221D183004FF00F0CFE
:101480000CFA03F7BC4305FA03FC4CEA040491F898
:1014900003C0BCF1280F05D100F1080C08FA0CF8C4
:1014A000C2F8148091F803C0BCF1480F07D100F1D5
:1014B000080C4FF0010808FA0CF8C2F81080401C24
:1014C0000828CED35460BDE8F0810246002093681E
:1014D0000B400BB1012000E00020704700BFFEE789
:1014E00008B50121102000F0A5FA4FF4C050ADF866
:1014F000000010208DF8030003208DF802006946DB
:101500000448FFF757FF0120034908600349C1F869
:10151000AC0108BD00100140B0012242000022428F
:1015200070B504461548406820F47040134948607F
:101530000846406840F44050486000201049086068
:10154000002517E0E0090E49091F08606006040E37
:10155000022000F0CDFE01200A49C1F8B0010220AE
:1015600000F0C6FE002006490860022000F0C0FE20
:10157000681CC5B2082DE5DB70BD000000100140FD
:10158000B00122420000224210B50F48406820F40A
:1015900070400D4948600846406840F4405048603B
:1015A00001200A4908600A49C1F8B001042000F08E
:1015B0009FFE002005490860042000F099FE0020ED
:1015C0000349C1F8B00110BD00100140AC01224236
:1015D0000000224210B51148406820F470400F49C5
:1015E00048600846406840F44050486000200C497C
:1015F00008600C49C1F8AC01042000F079FE01201C
:1016000007490860042000F073FE01200549C1F875
:10161000AC01042000F06CFE10BD00000010014081
:10162000B00122420000224210B500241448406854
:1016300020F47040124948600846406840F4004079
:10164000486001200F49086000F052FE01200E4959
:10165000C1F8B00100F04CFE07E0601CC4B2FA2CE7
:1016600003DDFFF7B7FF012010BD06488038006892
:101670000028F2D10349091D086000BFF4E700000B
:1016800000100140AC012242000022420EB50121AF
:10169000084600F0CFF94FF4C06000F095F829201B
:1016A0008DF8080001208DF8090000208DF80A004F
:1016B00001208DF80B0002A800F04EF84FF4003026
:1016C000FFF708FE4FF40030009000208DF8040072
:1016D00008208DF8050001208DF806006846FFF708
:1016E000FFFD01214FF0C05000F094F9012000F0FF
:1016F00073F9012000F080F9012802D100F072F99D
:1017000001E0FFF7A2FD012000F032FA00BF6120E6
:1017100000F010FA0028FAD04FF4007000F034FA0C
:10172000012000F02BFA00F0C3FA00F0B7FA012113
:10173000022000F085FA00F0B1FA202000F09EFAB5
:1017400000F0ACFA002000F08BFA00F0A7FA0EBD12
:1017500000BFFEE77047000070B5002100230F2294
:10176000C47804B3154C246804F4E064C4F5E06460
:10177000210AC1F10403CA40447804FA03F18478D1
:101780001440214309010E4C0678A155047804F059
:101790001F050124AC4005786D11AD0005F1E02571
:1017A000C5F8004109E0047804F01F050124AC40AD
:1017B000044D0678761145F8264070BD0CED00E02A
:1017C00000E400E080E100E002490143024A1160C8
:1017D000704700000000FA050CED00E070B5064609
:1017E0000024002500BF15E004F1B001C8B200F0EC
:1017F00014F8002000F011F8102000F00EF8002579
:1018000004E0304600F0D2F8681CC5B2802DF8DB49
:10181000601CC4B2082CE7DB70BD10B50446FFF7AE
:10182000B3FE7820FFF77CFEFFF7FEFE0020FFF7F7
:1018300077FEFFF7F9FE2046FFF772FEFFF7F4FE92
:10184000FFF7C8FE10BD70B505460C4605F1B001A6
:10185000C8B2FFF7E2FF102101EB1410FFF7DDFF24
:1018600004F00F00FFF7D9FF70BD00002DE9F04133
:10187000064688461746A7F12000C5B20024414617
:101880003046FFF7E0FF00BF07E004EB05110E4A0A
:10189000505C00F08BF8601CC4B2082CF5DB711CA6
:1018A000C8B24146FFF7CFFF002409E0082101EB51
:1018B00005112144044A505C00F078F8601CC4B261
:1018C000082CF3DBBDE8F081C42D000870B5064696
:1018D0000D46144608E0227829463046FFF7C6FF39
:1018E00005F10800C5B2641C20780028F3D170BD52
:1018F00010B5FFF7F5FDAE20FFF78FFF0220FFF7D1
:101900008CFF1020FFF789FF4020FFF786FF812022
:10191000FFF783FFCF20FFF780FFA120FFF77DFFB8
:10192000C820FFF77AFFA620FFF777FFA820FFF770
:1019300074FF3F20FFF771FFD320FFF76EFF0020F9
:10194000FFF76BFFD520FFF768FF8020FFF765FFEB
:10195000D920FFF762FFF120FFF75FFFDA20FFF7E2
:101960005CFF1220FFF759FFDB20FFF756FF4020F6
:10197000FFF753FF2020FFF750FF0220FFF74DFF36
:101980008D20FFF74AFF1420FFF747FFA420FFF741
:1019900044FFA620FFF741FFAF20FFF73EFFAF2037
:1019A000FFF73BFF0020FFF719FF10BD10B50446FD
:1019B000FFF7EAFD7820FFF7B3FDFFF735FE402083
:1019C000FFF7AEFDFFF730FE2046FFF7A9FDFFF75A
:1019D0002BFEFFF7FFFD10BD0149086270470000B4
:1019E00000000E420349096841EA8001014A116082
:1019F000704700000070004001460020034A526812
:101A00000A400AB1012000E0002070470070004049
:101A10007047000029B1064AD2690243044BDA61DB
:101A200004E0034AD2698243014BDA617047000047
:101A30000010024029B1064A92690243044B9A61A0
:101A400004E0034A92698243014B9A6170470000A7
:101A50000010024001490860704700004004424203
:101A600030B500210022002400232D4D6D6805F0C3
:101A70000C0121B1042905D0082923D105E0294D05
:101A8000056022E0274D05601FE0254D6D6805F4D7
:101A90007012234D6D6805F48034022505EB9242E7
:101AA0001CB9214D554305600BE01D4D6D6805F4D3
:101AB00000351DB11C4D5543056002E0194D5543DD
:101AC000056002E0174D056000BF00BF144D6D6852
:101AD00005F0F0010909154D6B5C0568DD404560B6
:101AE0000F4D6D6805F4E061090A104D6B5C4568A7
:101AF000DD4085600A4D6D6805F46051C90A0B4DE3
:101B00006B5C4568DD40C560054D6D6805F440417E
:101B1000890B074D6B5CC568B5FBF3F5056130BDFE
:101B20000010024000127A0000093D00140000205D
:101B30002400002010B501460022002300204A1195
:101B4000012A02D1094C236806E0022A02D1074C7F
:101B5000236A01E0054C636A01F01F0201249440EE
:101B60001C400CB1012000E0002010BD001002401C
:101B70000149086070470000800442420149086042
:101B8000704700003C0442420249096A0143014A8D
:101B9000116270470010024010B5022000F026F8D4
:101BA00030B14FF40030FFF795FB022000F002F84F
:101BB00010BD0000024909888143014A1180704725
:101BC000042800400348008840F0100001490880C4
:101BD0007047000004280040034800884FF6EF716A
:101BE0000840014908807047042800400146002051
:101BF000064A12880A40D0B2044A121F12880A40CC
:101C000012B108B1012000E0002070470428004014
:101C100010B50220FFF7EAFF012808D14004FFF7C2
:101C200059FB0220FFF7C6FF00F038F806E001205C
:101C3000FFF7DCFF012801D1FFF7BCFF10BD00005A
:101C400029B1064A12880243044B1A8004E0034A71
:101C500012888243014B1A80704700000028004020
:101C600000B50246FFF7AEFF100C03490880091DBE
:101C70000A80FFF7B1FF00BD1828004000B50246FA
:101C8000FFF7A0FFC2F3034003490880091D0A8043
:101C9000FFF7A2FF00BD00000828004000BF034876
:101CA000008800F020000028F9D070470428004088
:101CB000074800884FF6F77108400549088000BFC3
:101CC0000348008800F008000028F9D070470000A1
:101CD00004280040704710B500F002F810BD000065
:101CE0000CB50020019000903348006840F480302B
:101CF0003149086000BF3048006800F400300090AF
:101D00000198401C0190009818B90198B0F5A06F97
:101D1000F1D12948006800F4003010B10120009092
:101D200001E0002000900098012843D1234800687A
:101D300040F01000214908600846006820F00300C8
:101D400008600846006840F0020008601A484068D1
:101D5000194948600846406848600846406840F4B1
:101D6000806048600846406820F47C10486008465F
:101D7000406840F4E81048600846006840F0807011
:101D8000086000BF0C48006800F000700028F9D01F
:101D90000948406820F00300074948600846406849
:101DA00040F00200486000BF0348406800F00C00AB
:101DB0000828F9D10CBD00000010024000200240AC
:101DC000042808D14FF0E021096941F004014FF0E7
:101DD000E022116107E04FF0E021096921F00401E0
:101DE0004FF0E022116170477047000010B51348B2
:101DF000006840F001001149086008464068104939
:101E000008400E494860084600680E4908400B49E2
:101E100008600846006820F4802008600846406892
:101E200020F4FE0048604FF41F008860FFF753FF66
:101E30004FF000600449086010BD0000001002402F
:101E40000000FFF8FFFFF6FE08ED00E010B540F2DD
:101E500025511D4800F04AF810B31B4800F002F964
:101E6000C4B21A48008800F40040C8B91748008876
:101E700000F4804060B10A2C03D000201349088090
:101E800020E01248008840F400401049088019E022
:101E90000D2C06D10D48008840F480400B49088085
:101EA00010E00A480088C0F30D0009490C540748A7
:101EB0000088401C0549088008460088C72801DDC5
:101EC0000020088010BD000000380140680000209C
:101ED0007000002021B1828942F40052828104E026
:101EE00082894DF6FF731A408281704770B50246B1
:101EF000002400230025002040F66A16B14200D1DC
:101F000000BFC1F3421501F01F03012606FA03F3D7
:101F1000012D02D19689334006E0022D02D1168AA6
:101F2000334001E0968A33400C12012606FA04F48D
:101F30001688344013B10CB1012000E0002070BDC0
:101F4000F0B50346002400260025002040F66A175D
:101F5000B94200D100BF1846C1F3421401F01F0678
:101F6000012707FA06F5012C01D10C3004E0022C00
:101F700001D1103000E014301AB107682F43076018
:101F800002E00768AF430760F0BD00002DE9F047AD
:101F900086B005460E460024A24600BFA146002793
:101FA000B08900B100BF2F462C8A4CF6FF70044068
:101FB000F08804432C82AC894EF6F3100440B088BC
:101FC00031890843718908430443AC81AC8A4FF6D8
:101FD000FF400440B0890443AC8201A8FFF740FDF4
:101FE0001F48874202D1DDF810A001E0DDF80CA007
:101FF000A88900F4004040B10AEBCA0000EB0A10C7
:1020000031684900B0FBF1F807E00AEBCA0000EBC9
:102010000A1031688900B0FBF1F86420B8FBF0F0D9
:1020200004012009642101FB1089A88900F4004003
:1020300040B1322000EBC900B0FBF1F000F0070026
:10204000044308E0322000EB09106421B0FBF1F0FA
:1020500000F00F0004432C8106B0BDE8F0870000BB
:102060000038014001468888C0F30800704700BF6F
:10207000FEE7490050EAC12018BF04204A0D18BFEE
:1020800040F0010040F2FF72B2EB515F08BF40F038
:102090000200012808BF0520704730380A2801D205
:1020A0000120704700207047014600BF70470000C4
:1020B0002DE9F84301210820FFF7BCFC2020ADF8F2
:1020C000000010208DF8030003208DF802006946FF
:1020D0001C48FFF76FF98020ADF8000048208DF80C
:1020E000030069461748FFF765F94020ADF8000086
:1020F00048208DF8030069461248FFF75BF900227B
:10210000114B12490868496800F002FB064600229C
:102110000F4B00F06DFC044600220E4B00F0F8FA65
:10212000804642460B4600200B4900F0F1FA0B4A6C
:1021300003C200200A49086001200A490860BDE87E
:10214000F8830000000C014000408F402800002070
:1021500000E3B640000059400000F03F5800002066
:102160003800002094812142F0B589B03A480068D7
:1021700000286ED000203849086038A0FEF754F8D7
:1021800038480268436838A0FEF74EF837A0FEF7DB
:102190004BF838480268436833A0FEF745F836A08C
:1021A000FEF742F837490968374A1268881A00F082
:1021B00007FC06460022354B00F0AAFA04462246E8
:1021C0000B4629A0FEF730F831A0FEF72DF8324873
:1021D0000268436831A0FEF727F822480268436886
:1021E00030A107A8FEF72CF82248026843682DA109
:1021F00005A8FEF725F823490968234A1268881ABA
:1022000000F0DEFB06460022204B00F081FA044677
:1022100022460B4623A103A8FEF712F81E480268C7
:10222000436820A101A8FEF70BF807AA302100207F
:10223000FFF74CFB05AA30210220FFF747FB03AA5A
:1022400038210420FFF742FB01AA28210620FFF7CE
:102250003DFB09B0F0BD0000380000206D41683A38
:1022600020000000280000202566000020736F6316
:102270003A2000003000002025252074696D653A61
:10228000200000003C0000204000002080842E41FF
:1022900073206D413A2000004800002025660A0A9C
:1022A00000000000252E32660000000010B56FF01F
:1022B0000400FFF785FD0A4800680A49B0FBF1F009
:1022C000094908700846007800EB4001C1EBC010D6
:1022D0004FF6FF7101EAC0000449088010BD0000FC
:1022E0000000002000127A006A0000206C0000202C
:1022F0000146114A12784A434FF0E0235A61002206
:102300009A611A46126942F001021A6100BF4FF049
:10231000E022106900F001021AB100F48032002AB4
:10232000F5D04FF0E022126922F001024FF0E023D5
:102330001A6100229A6170476A00002000BF054AB6
:10234000128802F04002002AF9D0C2B2014B1B1DD4
:102350001A807047003801404FF4E13000F0CAF8AD
:10236000FFF7A4FFFFF792F9FFF7BAF8FFF7C0FAFB
:10237000FEF776FF10A200210846FFF7A7FA10A289
:1023800000210220FFF7A2FA0FA200210420FFF78C
:102390009DFA0FA200210620FFF798FA0EA25821FD
:1023A0000220FFF793FA0DA258210420FFF78EFABE
:1023B00001E0FFF7D9FEFCE76D41683A200000001C
:1023C000736F633A2000000074696D653A20000065
:1023D0006D413A200000000025000000730000005D
:1023E000034800880249091F098800EB0140704733
:1023F0001C2800402DE9F04131480068314908604F
:10240000FFF7EEFF4FF47A7148432D4908602E48DC
:1024100000682E49086008460068A0B12C482D4984
:102420000CC80868496800F0CBF82A4A106051606F
:1024300029482A490CC80868496800F0C1F8274AA9
:102440001060516013E0224822490CC808684968AE
:1024500000F0CCFB1F4A106051601F481F490CC898
:102460000868496800F0C2FB1C4A106051601449BA
:102470000968144A1268881A00F0A2FA0646002277
:10248000174B00F045F9044622460B464FF0333017
:10249000144900F03DF9144A106051600B4800687F
:1024A00048B10022114B10490868496800F0A0FAB1
:1024B0000D4A1060516001200D490860BDE8F081AF
:1024C0003C000020400000201881214260000020D4
:1024D000500000202800002058000020300000207C
:1024E00080842E4133338340480000200000F0BF39
:1024F0003800002010B586B00446012144F20400E3
:10250000FFF798FA4FF40070ADF8140003208DF82F
:10251000160018208DF8170005A91C48FEF74AFF81
:102520004FF48060ADF8140004208DF8170005A961
:102530001648FEF73FFF25208DF8000003208DF898
:1025400001008DF8020001208DF803006846FFF7B6
:1025500003F901940020ADF80800ADF80A00ADF8C9
:102560000C00ADF810000C20ADF80E0001A90848D1
:10257000FFF70CFD012240F225510548FFF7E0FC72
:1025800001210348FFF7A6FC06B010BD000801407A
:102590000038014010B500290AD00878002807D07B
:1025A00005487844FEF756FA002801D0002010BDF7
:1025B0000248784410BD0000C60E0000BE0E0000A8
:1025C00010B591EA030F48BF83F0004300F1168372
:1025D000841A71EB030C05D2121943EB0C03001B98
:1025E00061EB0C01DFF824E14FEA1154A4EB135C1A
:1025F0001EEA430F18BF9EEA445F73D023EA0E031E
:10260000DCF1200E21EA045143F4801332D322FA84
:102610000CFE10EB0E0023FA0CFE41EB0E01CCF188
:10262000200E03FA0EFE10EB0E0051F10001B1F581
:10263000801FCCF1200E32D201EB045112FA0EF2BF
:10264000BDE8104058BF7047401C38BF5FEA4202E7
:1026500018BF7047002814BF20F0010041F10001AD
:102660004FEA410313F5001F38BF7047A1F1C04185
:1026700000F0B6BA012A43EB0302ACF1200CDCF106
:102680001F0E32BF4FF0000E23FA0CF310EB0300C5
:1026900041EB0451B4EB115FD0D0A1EB045101F533
:1026A000801149085FEA300001EB04510ED350F16C
:1026B000000038BF12FA0EFE08D1BDE81040C9E78D
:1026C000401C38BF5FEA4202CAD1C3E7BDE81040F0
:1026D0004FEA410313F5001F38BF7047A1F1C04115
:1026E00000F07EBA9EEA445F08D011EA5E0FBDE8B2
:1026F000104004BF01F0004100207047BDE81040C9
:1027000070B500F01FFA00BF64FBBE3E0000E0FFA2
:102710002DE9C04130B4DFF8A0C23CEA111418BF63
:102720003CEA131400F0EC8081EA03051CEA111462
:1027300044EAD57418BF1CEA131500F0C780A4EB57
:1027400005044FF0004545EAC12145EAC32341EAAB
:10275000505143EA525304F17F74994204F5003416
:102760004FEAC0204FEAC22208BF904200F09C808E
:102770004FEA13650FF24016765D4FEA134506FBEC
:1027800005F7C7F1807706FB07F74FEAD737A7FBB6
:1027900003687642C8F58038A7FB06CE38BFA8F19B
:1027A000010807FB08E64FF0000EA6FB028CE6FBD3
:1027B00003CEDCF1000CCEF1004E38BFAEF1010EBD
:1027C000A6FB0C584FF000074FF00005E6FB0E8704
:1027D000A1FB08C6A0FB07CE16EB0E0645F10005CF
:1027E000E1FB076515F1E04E7EBFA4F580345FEA9A
:1027F00046066D4116F1800745F100054FEA17279F
:102800004FEA066647EA0567A6F1DE46B6F1805F45
:102810004FEA15251FD9384624F0010C05EBC47189
:10282000BCF1FE6F01EB0C1102D8F0BCBDE80081D9
:1028300024425CBF01F5801E9EEAC47F02D4F0BC36
:10284000BDE80081244238D4F0BCA1F1C041BDE80C
:10285000004100F0C5B94FEAD22242EA43524FEAA2
:10286000D323A7FB02864FEAD02040EA415007FB62
:1028700003661EEA0E0F4FEAD12105FB026658BF20
:10288000A6EB0056B6EB00564FEA520E4EEAC37E58
:1028900018EB0E0E56EB530EBDD518EB02085E4139
:1028A0007F1C55F10005B6E74FF480154FF0000787
:1028B0004FF000064FF00008ADE7F0BC4FF000000D
:1028C00001F1C04101F00041BDE8008111EA0C1F97
:1028D0000CEA131500D00CE013EA0C1F00F0258061
:1028E0004FF00000F0BC81EA030101F00041BDE8B7
:1028F0000081F0BCBDE8004181EA030100F070B93D
:10290000F0BCBDE8004170B500F01CF9097EFC3E4A
:1029100000F007B881EA03014FF0000001F0004128
:10292000704781EA030100F05BB9F0BCBDE80041EB
:102930004FF0000021497047FFFDFBF9F7F5F4F275
:10294000F0EEEDEBE9E8E6E4E3E1E0DEDDDBDAD84A
:10295000D7D5D4D3D1D0CFCDCCCBCAC8C7C6C5C4A8
:10296000C2C1C0BFBEBDBCBBBAB9B8B7B6B5B4B3BF
:10297000B2B1B0AFAEADACABAAA9A8A8A7A6A5A4AA
:10298000A3A3A2A1A09F9F9E9D9C9C9B9A9999986E
:102990009797969595949393929191908F8F8E8E11
:1029A0008D8C8C8B8B8A898988888787868585849E
:1029B00084838382828181800000FF070000F87F8A
:1029C00010F0004248BF4042B0FA80F310FA03F121
:1029D0000AD0C3F11D0303F580634FEA415002EBB7
:1029E000035202EBD12170474FF000007047000006
:1029F000DFF848C170B51CEA111E1EBF1CEA131592
:102A00009EEA0C0F95EA0C0F00F06F8081EA030438
:102A100023EA4C134EEAD47E21EA4C1141F4801192
:102A200043F48013AE44A1FB024CA0FB0365AEF15E
:102A30007F7E361955EB0C05A1FB034C4CF10003CE
:102A4000A0FB021C16EB0C06654153F10003094282
:102A500018BF46F0010613F4007F0BD14FEA033193
:102A60004FEA0530340341EA155140EA16506FF041
:102A700003020AE04FEAC3214FEAC520F40241EA0B
:102A8000555140EA56506FF0020202EB2E4201EB24
:102A9000025585EACE710AD05FEA440C18BF24F0D3
:102AA000004450F1000041F1000120EAD47040F2EE
:102AB000FE7C624500D270BDA84214BF4FF0804436
:102AC0004FF04044002E08BF0024BEF1806FA8BF25
:102AD000A1F1C041BDE8704080F282804FF000005B
:102AE00001F1C04101F0004170479EEA0C0F0CEA71
:102AF000131518BF95EA0C0F06D04FF0000081EABD
:102B0000030E0EF0004170BD00F01CF88900013E7C
:102B100000F007B800F009B84FEA430C5FEA5C5CCC
:102B200008D081EA030100F05BB84FEA410C5FEA8C
:102B30005C5CF6D14FF00000014970470000FF07D0
:102B40000000F87F0EF1020E2EF0030E5EF8046B0B
:102B5000364205D4012A43EB030515F5001F12D8B0
:102B6000012841EB010C1CF5001F0CD80ED14FEAD7
:102B7000D17C15F5001F0CEB4C0C0CF1020C08BFBE
:102B80004CEBD37C04E04FF0080C01E04FEAD37C1F
:102B90000CEB4C0526FA05F606F00706B6F1040C18
:102BA00006D20EEB860CBDE870404CF0010C60477D
:102BB000DFE80CF0090B02024FF000414FF000007B
:102BC000A1F5002170BD19461046012851EB010402
:102BD00018BFD4F5001484BF002001F0004170BD7F
:102BE0000808A0F500114FEA3101704710B591EACD
:102BF000030F48BF83F000433FF5EAAC841A71EB42
:102C0000030C07D212198CF0004C43EB0C03001B91
:102C100061EB0C01DFF8A4E14FEA1154A4EB135C63
:102C20001EEA430F18BF9EEA445F00F0B08023EA1B
:102C30006E03524221EA0451C3EB6E0338BF5B1EA0
:102C4000DCF1200E25D322FA0CFE10EB0E0043FA25
:102C50000CFE41EB0E01CCF1200E03FA0EFE10EB40
:102C60000E0051F10001CCF1200E29D412FA0EF21F
:102C700001EB0451BDE8104058BF7047401C1CBF19
:102C8000B2F1004F704700280CBF491C20F0010032
:102C9000704712EB020E43EB030218BF4FF0010E18
:102CA0004EEA4202ACF1200CDCF11E0E54D943FA7C
:102CB0000CFE10EB0E0051F1FF31CCF11E0ED5D5FC
:102CC0000EF1010E12FA0EFE404141EB010101EB43
:102CD000445C5FEA5C5C10D910EBDE7001EB0451E0
:102CE00038BFBEF1004FBDE8104018BF7047002844
:102CF0000CBF491C20F00100704730D24FEAD42CA1
:102D000011F5001124F400641BD0B1FA81F20B3AE2
:102D1000A41AA41ED2F12003914030FA03F3194300
:102D2000904001EBCC71002C01EB0451BDE8104048
:102D3000A8BF704701F1C0414FF0000001F0004111
:102D40007047B0FA80F310FA03F100D110BDE41A15
:102D5000173C4805C90AE4E701EB045110BD4910CE
:102D600001EB0451BDE810404FEA300002E04FF0A3
:102D7000000170474A0008BF0042F8D0B2F5001FBA
:102D800028BF704701F000414FF0000070479EEAF5
:102D9000445F07D011EA5E0FBDE8104004BF002178
:102DA00000207047BDE8104070B5FFF7CBFE00BFB4
:102DB00040DFF63E83F00041104670470000E0FF20
:102DC000FDF7B4BB000000000000000000000000A0
:102DD00000000000000000F80000000000000033C8
:102DE0003000000000100C06100C0600000000006F
:102DF0000000000040C07840C0784000043F040458
:102E00003F040400007088FC08300000001820FF18
:102E1000211E0000F008F000E018000000211C0353
:102E20001E211E0000F00888700000001E212324CF
:102E30001927211000020204000000000000000019
:102E400000000000000000E018040200000000077D
:102E50001820400000020418E00000000040201884
:102E600007000000404080F0804040000202010F57
:102E700001020200000000F0000000000101011F3B
:102E800001010100000000000000000080B070009F
:102E9000000000000000000000000000000101012F
:102EA00001010101000000000000000000303000BE
:102EB0000000000000000000806018040060180698
:102EC0000100000000E010080810E000000F1020D2
:102ED00020100F00001010F8000000000020203F1C
:102EE00020200000007008080888700000302824A6
:102EF0002221300000300888884830000018202047
:102F000020110E000000C02010F80000000704246B
:102F1000243F240000F808888808080000192120B0
:102F200020110E0000E0108888180000000F11200A
:102F300020110E0000380808C83808000000003FC3
:102F4000000000000070880808887000001C222122
:102F500021221C0000E010080810E00000003122CF
:102F600022110F00000000C0C0000000000000306F
:102F700030000000000000800000000000008060C1
:102F80000000000000008040201008000001020442
:102F90000810200040404040404040000404040429
:102FA00004040400000810204080000000201008E5
:102FB00004020100007048080808F000000000301A
:102FC00036010000C030C828E810E00007182724A8
:102FD00023140B000000C038E0000000203C230256
:102FE0000227382008F8888888700000203F2020B9
:102FF00020110E00C03008080808380007182020EB
:103000002010080008F808080810E000203F2020E1
:1030100020100F0008F88888E8081000203F2020C2
:103020002320180008F88888E8081000203F2000B6
:1030300003000000C03008080838000007182020EE
:10304000221E020008F808000008F808203F2101AD
:1030500001213F20000808F8080800000020203F58
:103060002020000000000808F8080800C0808080C8
:103070007F00000008F888C028180800203F2001C1
:103080002638200008F8080000000000203F20201B
:103090002020300008F8F800F8F80800203F003F32
:1030A000003F200008F830C00008F808203F20004A
:1030B00007183F00E01008080810E0000F1020205B
:1030C00020100F0008F808080808F000203F210130
:1030D00001010000E01008080810E0000F18242487
:1030E00038504F0008F8888888887000203F2000FA
:1030F000030C3020007088080808380000382021B0
:1031000021221C00180808F8080818000000203FB9
:103110002000000008F808000008F808001F202020
:1031200020201F000878880000C8380800000738F1
:103130000E010000F80800F80008F800033C070042
:10314000073C0300081868808068180820302C03AA
:10315000032C30200838C800C83808000000203F81
:103160002000000010080808C83808002038262170
:1031700020201800000000FE020202000000007F74
:1031800040404000000C30C0000000000000000182
:103190000638C00000020202FE000000004040406D
:1031A0007F00000000000402020204000000000092
:1031B000000000000000000000000000808080800F
:1031C0008080808010160E000000000000000000CB
:1031D0000000000000008080808000000019242290
:1031E00022223F2008F8008080000000003F1120CC
:1031F00020110E000000008080800000000E1120D1
:1032000020201100000000808088F800000E1120AE
:1032100020103F200000808080800000001F2222BC
:1032200022221300008080F0888888180020203F28
:10323000202000000000808080808000006B94943B
:103240009493600008F8008080800000203F2100F7
:1032500000203F2000809898000000000020203FC0
:1032600020200000000000809898000000C08080AE
:10327000807F000008F8000080808000203F24024A
:103280002D302000000808F8000000000020203F3A
:10329000202000008080808080808000203F2000EF
:1032A0003F20003F8080008080800000203F210080
:1032B00000203F200000808080800000001F202030
:1032C00020201F00808000808000000080FFA1205F
:1032D00020110E000000008080808000000E112070
:1032E00020A0FF80808080008080800020203F21FF
:1032F00020000100000080808080800000332424B2
:1033000024241900008080E0808000000000001F5D
:10331000202000008080000000808000001F20200E
:1033200020103F20808080000080808000010E30CF
:103330000806010080800080008080800F300C0330
:103340000C300F0000808000808080000020312E33
:103350000E312000808080000080808080818E700F
:103360001806010000808080808080000021302CC1
:103370002221300000000000807C020200000000DA
:10338000003F404000000000FF000000000000007F
:10339000FF0000000002027C800000000040403F6F
:1033A0000000000000060101020204040000000009
:1033B0000000000002400000000000A0000000002B
:1033C00005400000000000C8000000000C400000A4
:1033D0000000409C00000000194000000020BCBE1E
:1033E0000000000034400000BFC91B8E0000000434
:1033F000B5400000504BCFD06607E2CF010000007F
:103400006C4100003E8251AADFEEA73401000000AB
:10341000D9420000DCB5A0E23A301F97FFFFFFFF62
:10342000B4450000FD25A0C8E9A3C14FFFFFFFFF81
:10343000FF3F00000000008000000000FF3F000090
:10344000000000800000000084340008000000201C
:10345000700000006C010008F434000870000020C7
:1034600028070000880100081C000000430000003D
:10347000F8FFFFFF0C0000000E0000000F0000002E
:103480002E00000000A24A0400000000000000001E
:1034900001020304060708090000000001020304FA
:1034A00001020304060708090204060800000000E0
:1034B00000409F4000000000000059400000000054
:1034C00000000000000000000000000000000000FC
:1034D0000000000072E49A65C3D8C53F00000000F8
:1034E00000000000000000000000000000000000DC
:0434F00000000000D8
:04000005080001E509
:00000001FF
